{
  "contractName": "SmartPay",
  "abi": [
    {
      "constant": false,
      "inputs": [
        {
          "name": "myid",
          "type": "bytes32"
        },
        {
          "name": "result",
          "type": "string"
        }
      ],
      "name": "__callback",
      "outputs": [],
      "payable": false,
      "stateMutability": "nonpayable",
      "type": "function"
    },
    {
      "constant": false,
      "inputs": [
        {
          "name": "myid",
          "type": "bytes32"
        },
        {
          "name": "result",
          "type": "string"
        },
        {
          "name": "proof",
          "type": "bytes"
        }
      ],
      "name": "__callback",
      "outputs": [],
      "payable": false,
      "stateMutability": "nonpayable",
      "type": "function"
    },
    {
      "inputs": [],
      "payable": false,
      "stateMutability": "nonpayable",
      "type": "constructor"
    }
  ],
  "bytecode": "0x608060405234801561001057600080fd5b5033600560006101000a81548173ffffffffffffffffffffffffffffffffffffffff021916908373ffffffffffffffffffffffffffffffffffffffff1602179055506101f9806100616000396000f30060806040526004361061004c576000357c0100000000000000000000000000000000000000000000000000000000900463ffffffff16806327dc297e1461005157806338bbfa50146100c8575b600080fd5b34801561005d57600080fd5b506100c66004803603810190808035600019169060200190929190803590602001908201803590602001908080601f0160208091040260200160405190810160405280939291908181526020018383808284378201915050505050509192919290505050610185565b005b3480156100d457600080fd5b506101836004803603810190808035600019169060200190929190803590602001908201803590602001908080601f0160208091040260200160405190810160405280939291908181526020018383808284378201915050505050509192919290803590602001908201803590602001908080601f01602080910402602001604051908101604052809392919081815260200183838082843782019150505050505091929192905050506101c8565b005b6101c4828260006040519080825280601f01601f1916602001820160405280156101be5781602001602082028038833980820191505090505b506101c8565b5050565b5050505600a165627a7a72305820f64f8b20cd3a70535433b5c16079e14cb6d6b0f59a773654becbfa2c1ada86ff0029",
  "source": "pragma solidity ^0.4.23;\n\n// import \"github.com/oraclize/ethereum-api/oraclizeAPI.sol\";\nimport \"./oraclizeAPI_0.5.sol\";\n\ncontract SmartPay is usingOraclize {\n    address owner;\n    address beneficiary;\n    uint gweiToPayPerView;\n    string youtubeId;\n    bool withdrawn;\n    \n    constructor() public {\n        owner = msg.sender;\n    }\n}",
  "sourcePath": "/Volumes/ExternalSSD/hackathon/GlobalBlochckain/dApp-react-BetterMarket/contracts/SmartPay.sol",
  "compiler": {
    "name": "solc",
    "version": "0.4.24+commit.e67f0147.Emscripten.clang"
  },
  "schemaVersion": "2.0.1",
  "updatedAt": "2018-09-30T09:00:50.220Z"
}